{
  "contractName": "Donation",
  "abi": [
    {
      "anonymous": false,
      "inputs": [
        {
          "indexed": false,
          "internalType": "address",
          "name": "_msgSender",
          "type": "address"
        },
        {
          "indexed": false,
          "internalType": "address",
          "name": "_to",
          "type": "address"
        },
        {
          "indexed": false,
          "internalType": "uint256",
          "name": "_value",
          "type": "uint256"
        }
      ],
      "name": "CurrentValueOfSomeone",
      "type": "event"
    },
    {
      "anonymous": false,
      "inputs": [
        {
          "indexed": false,
          "internalType": "address",
          "name": "_msgSender",
          "type": "address"
        },
        {
          "indexed": false,
          "internalType": "uint256",
          "name": "_value",
          "type": "uint256"
        }
      ],
      "name": "MyCurrentValue",
      "type": "event"
    },
    {
      "anonymous": false,
      "inputs": [
        {
          "indexed": false,
          "internalType": "address",
          "name": "_msgSender",
          "type": "address"
        },
        {
          "indexed": false,
          "internalType": "uint256",
          "name": "_currentValue",
          "type": "uint256"
        }
      ],
      "name": "SendInfo",
      "type": "event"
    },
    {
      "inputs": [
        {
          "internalType": "address payable",
          "name": "_to",
          "type": "address"
        }
      ],
      "name": "sendEther",
      "outputs": [],
      "stateMutability": "payable",
      "type": "function"
    },
    {
      "inputs": [],
      "name": "checkValueNow",
      "outputs": [],
      "stateMutability": "nonpayable",
      "type": "function"
    },
    {
      "inputs": [
        {
          "internalType": "address",
          "name": "_to",
          "type": "address"
        }
      ],
      "name": "checkUserValue",
      "outputs": [],
      "stateMutability": "nonpayable",
      "type": "function"
    }
  ],
  "bytecode": "0x608060405234801561001057600080fd5b50610466806100206000396000f3fe6080604052600436106100345760003560e01c806348c981e21461003957806374003de914610055578063c776b4df1461007e575b600080fd5b610053600480360381019061004e9190610287565b610095565b005b34801561006157600080fd5b5061007c6004803603810190610077919061025a565b610189565b005b34801561008a57600080fd5b506100936101de565b005b343373ffffffffffffffffffffffffffffffffffffffff163110156100ef576040517f08c379a00000000000000000000000000000000000000000000000000000000081526004016100e690610355565b60405180910390fd5b8073ffffffffffffffffffffffffffffffffffffffff166108fc349081150290604051600060405180830381858888f19350505050158015610135573d6000803e3d6000fd5b507fef3d45e3976629248ff5a27c6e07e8c80013b2b1f46611f16ebf46c6bf09be29333373ffffffffffffffffffffffffffffffffffffffff163160405161017e92919061032c565b60405180910390a150565b7fbce456ac206bf5f267f4accbf956229979251e867ffc3fb45ca938fc6a27a44033828373ffffffffffffffffffffffffffffffffffffffff16316040516101d3939291906102f5565b60405180910390a150565b7f96f3ab567151de7a605db2b427c0e7bd4c402b81f2d24c89b0b92687e0494c15333373ffffffffffffffffffffffffffffffffffffffff163160405161022692919061032c565b60405180910390a1565b60008135905061023f81610402565b92915050565b60008135905061025481610419565b92915050565b6000602082840312156102705761026f6103d4565b5b600061027e84828501610230565b91505092915050565b60006020828403121561029d5761029c6103d4565b5b60006102ab84828501610245565b91505092915050565b6102bd81610386565b82525050565b60006102d0602083610375565b91506102db826103d9565b602082019050919050565b6102ef816103ca565b82525050565b600060608201905061030a60008301866102b4565b61031760208301856102b4565b61032460408301846102e6565b949350505050565b600060408201905061034160008301856102b4565b61034e60208301846102e6565b9392505050565b6000602082019050818103600083015261036e816102c3565b9050919050565b600082825260208201905092915050565b6000610391826103aa565b9050919050565b60006103a3826103aa565b9050919050565b600073ffffffffffffffffffffffffffffffffffffffff82169050919050565b6000819050919050565b600080fd5b7f796f75722062616c616e6365206973206e6f7420656e6f7567682c2074657374600082015250565b61040b81610386565b811461041657600080fd5b50565b61042281610398565b811461042d57600080fd5b5056fea2646970667358221220cdc5ff32cdd35b03be82b7ed015f70a56409d4cfb29fe1f17bc84c0206c0e4d764736f6c63430008070033",
  "immutableReferences": {},
  "source": "// SPDX-License-Identifier: MIT\r\npragma solidity ^0.8.7;\r\n\r\n\r\n    \r\n\r\n//.balance\r\n//      .  //  msg.value \r\n\r\n// msg.sender\r\n// msg.sender   \r\n\r\ncontract Donation{\r\n    event SendInfo(address _msgSender, uint256 _currentValue);\r\n    event MyCurrentValue(address _msgSender,uint256 _value);\r\n    event CurrentValueOfSomeone(address _msgSender, address _to, uint256 _value);\r\n\r\n\r\n   //  \r\n    function sendEther(address payable _to) public payable {\r\n        require (msg.sender.balance >= msg.value , \"your balance is not enough, test\");\r\n        //    \r\n        _to.transfer(msg.value);\r\n        //  ,  \r\n         emit SendInfo(msg.sender, (msg.sender).balance);\r\n    }\r\n    //   \r\n    function checkValueNow() public{\r\n        emit MyCurrentValue(msg.sender, (msg.sender).balance);\r\n    }\r\n    //    ,     \r\n    function checkUserValue(address _to) public{\r\n       emit CurrentValueOfSomeone(msg.sender, _to, _to.balance);\r\n    }\r\n\r\n}\r\n\r\n",
  "sourcePath": "F:\\2023_pnu_cse\\contracts\\Donation.sol",
  "compiler": {
    "name": "solc",
    "version": "0.8.7+commit.e28d00a7.Emscripten.clang"
  },
  "schemaVersion": "3.4.14",
  "updatedAt": "2023-09-04T10:30:47.277Z",
  "devdoc": {
    "kind": "dev",
    "methods": {},
    "version": 1
  },
  "userdoc": {
    "kind": "user",
    "methods": {},
    "version": 1
  }
}